{
  "_format": "hh-sol-artifact-1",
  "contractName": "CrowdFunding",
  "sourceName": "contracts/CrowdFunding.sol",
  "abi": [
    {
      "inputs": [],
      "name": "campaignCount",
      "outputs": [
        {
          "internalType": "uint256",
          "name": "",
          "type": "uint256"
        }
      ],
      "stateMutability": "view",
      "type": "function"
    },
    {
      "inputs": [
        {
          "internalType": "uint256",
          "name": "",
          "type": "uint256"
        }
      ],
      "name": "campaigns",
      "outputs": [
        {
          "internalType": "address",
          "name": "owner",
          "type": "address"
        },
        {
          "internalType": "string",
          "name": "title",
          "type": "string"
        },
        {
          "internalType": "string",
          "name": "description",
          "type": "string"
        },
        {
          "internalType": "uint256",
          "name": "target",
          "type": "uint256"
        },
        {
          "internalType": "uint256",
          "name": "deadline",
          "type": "uint256"
        },
        {
          "internalType": "uint256",
          "name": "amountCollected",
          "type": "uint256"
        },
        {
          "internalType": "string",
          "name": "image",
          "type": "string"
        }
      ],
      "stateMutability": "view",
      "type": "function"
    },
    {
      "inputs": [
        {
          "internalType": "address",
          "name": "_owner",
          "type": "address"
        },
        {
          "internalType": "string",
          "name": "_title",
          "type": "string"
        },
        {
          "internalType": "string",
          "name": "_description",
          "type": "string"
        },
        {
          "internalType": "uint256",
          "name": "_target",
          "type": "uint256"
        },
        {
          "internalType": "uint256",
          "name": "_deadline",
          "type": "uint256"
        },
        {
          "internalType": "string",
          "name": "_image",
          "type": "string"
        }
      ],
      "name": "createCampaign",
      "outputs": [
        {
          "internalType": "uint256",
          "name": "",
          "type": "uint256"
        }
      ],
      "stateMutability": "nonpayable",
      "type": "function"
    },
    {
      "inputs": [
        {
          "internalType": "uint256",
          "name": "_id",
          "type": "uint256"
        }
      ],
      "name": "donate",
      "outputs": [],
      "stateMutability": "payable",
      "type": "function"
    },
    {
      "inputs": [],
      "name": "getCampaigns",
      "outputs": [
        {
          "components": [
            {
              "internalType": "address",
              "name": "owner",
              "type": "address"
            },
            {
              "internalType": "string",
              "name": "title",
              "type": "string"
            },
            {
              "internalType": "string",
              "name": "description",
              "type": "string"
            },
            {
              "internalType": "uint256",
              "name": "target",
              "type": "uint256"
            },
            {
              "internalType": "uint256",
              "name": "deadline",
              "type": "uint256"
            },
            {
              "internalType": "uint256",
              "name": "amountCollected",
              "type": "uint256"
            },
            {
              "internalType": "string",
              "name": "image",
              "type": "string"
            },
            {
              "internalType": "address[]",
              "name": "donators",
              "type": "address[]"
            },
            {
              "internalType": "uint256[]",
              "name": "donations",
              "type": "uint256[]"
            }
          ],
          "internalType": "struct CrowdFunding.Campaign[]",
          "name": "",
          "type": "tuple[]"
        }
      ],
      "stateMutability": "view",
      "type": "function"
    },
    {
      "inputs": [
        {
          "internalType": "uint256",
          "name": "_id",
          "type": "uint256"
        }
      ],
      "name": "getDonators",
      "outputs": [
        {
          "internalType": "address[]",
          "name": "",
          "type": "address[]"
        },
        {
          "internalType": "uint256[]",
          "name": "",
          "type": "uint256[]"
        }
      ],
      "stateMutability": "view",
      "type": "function"
    }
  ],
  "bytecode": "0x6080604052600060015534801561001557600080fd5b50610fc9806100256000396000f3fe6080604052600436106100555760003560e01c80630fa91fa91461005a578063141961bc146100915780637274e30d146100c45780639943e3a1146100e8578063a6b0363314610108578063f14faf6f1461012a575b600080fd5b34801561006657600080fd5b5061007a610075366004610ab7565b61013f565b604051610088929190610ad0565b60405180910390f35b34801561009d57600080fd5b506100b16100ac366004610ab7565b61020e565b6040516100889796959493929190610ba1565b3480156100d057600080fd5b506100da60015481565b604051908152602001610088565b3480156100f457600080fd5b506100da610103366004610cae565b6103eb565b34801561011457600080fd5b5061011d610508565b6040516100889190610ddb565b61013d610138366004610ab7565b6108b5565b005b600081815260208181526040918290206007810180548451818502810185019095528085526060948594929360080192909184918301828280156101ac57602002820191906000526020600020905b81546001600160a01b0316815260019091019060200180831161018e575b50505050509150808054806020026020016040519081016040528092919081815260200182805480156101fe57602002820191906000526020600020905b8154815260200190600101908083116101ea575b5050505050905091509150915091565b600060208190529081526040902080546001820180546001600160a01b03909216929161023a90610ee8565b80601f016020809104026020016040519081016040528092919081815260200182805461026690610ee8565b80156102b35780601f10610288576101008083540402835291602001916102b3565b820191906000526020600020905b81548152906001019060200180831161029657829003601f168201915b5050505050908060020180546102c890610ee8565b80601f01602080910402602001604051908101604052809291908181526020018280546102f490610ee8565b80156103415780601f1061031657610100808354040283529160200191610341565b820191906000526020600020905b81548152906001019060200180831161032457829003601f168201915b50505050509080600301549080600401549080600501549080600601805461036890610ee8565b80601f016020809104026020016040519081016040528092919081815260200182805461039490610ee8565b80156103e15780601f106103b6576101008083540402835291602001916103e1565b820191906000526020600020905b8154815290600101906020018083116103c457829003601f168201915b5050505050905087565b6001546000908152602081905260408120600481015442116104695760405162461bcd60e51b815260206004820152602c60248201527f54686520646561646c696e652073686f756c642062652061206461746520696e60448201526b103a343290333aba3ab9329760a11b60648201526084015b60405180910390fd5b80546001600160a01b0319166001600160a01b038916178155865161049790600183019060208a0190610a1e565b5085516104ad9060028301906020890190610a1e565b50600381018590556004810184905582516104d19060068301906020860190610a1e565b5060006005820181905560018054916104e983610f33565b9190505550600180546104fc9190610f4e565b98975050505050505050565b6060600060015467ffffffffffffffff81111561052757610527610c0b565b6040519080825280602002602001820160405280156105b057816020015b61059d60405180610120016040528060006001600160a01b0316815260200160608152602001606081526020016000815260200160008152602001600081526020016060815260200160608152602001606081525090565b8152602001906001900390816105455790505b50905060005b6001548110156108af57600081815260208181526040918290208251610120810190935280546001600160a01b031683526001810180549193928492908401919061060090610ee8565b80601f016020809104026020016040519081016040528092919081815260200182805461062c90610ee8565b80156106795780601f1061064e57610100808354040283529160200191610679565b820191906000526020600020905b81548152906001019060200180831161065c57829003601f168201915b5050505050815260200160028201805461069290610ee8565b80601f01602080910402602001604051908101604052809291908181526020018280546106be90610ee8565b801561070b5780601f106106e05761010080835404028352916020019161070b565b820191906000526020600020905b8154815290600101906020018083116106ee57829003601f168201915b5050505050815260200160038201548152602001600482015481526020016005820154815260200160068201805461074290610ee8565b80601f016020809104026020016040519081016040528092919081815260200182805461076e90610ee8565b80156107bb5780601f10610790576101008083540402835291602001916107bb565b820191906000526020600020905b81548152906001019060200180831161079e57829003601f168201915b505050505081526020016007820180548060200260200160405190810160405280929190818152602001828054801561081d57602002820191906000526020600020905b81546001600160a01b031681526001909101906020018083116107ff575b505050505081526020016008820180548060200260200160405190810160405280929190818152602001828054801561087557602002820191906000526020600020905b815481526020019060010190808311610861575b50505050508152505083838151811061089057610890610f65565b60200260200101819052505080806108a790610f33565b9150506105b6565b50919050565b6000818152602081905260409020600481015442106109165760405162461bcd60e51b815260206004820152601860248201527f54686520646561646c696e6520686173207061737365642e00000000000000006044820152606401610460565b600034116109665760405162461bcd60e51b815260206004820152601c60248201527f596f75206e65656420746f2073656e6420736f6d652045746865722e000000006044820152606401610460565b600781018054600180820183556000928352602080842090920180546001600160a01b031916331790556008840180549182018155835290822034910181905582546040516001600160a01b0390911691908381818185875af1925050503d80600081146109f0576040519150601f19603f3d011682016040523d82523d6000602084013e6109f5565b606091505b505090508015610a195734826005016000828254610a139190610f7b565b90915550505b505050565b828054610a2a90610ee8565b90600052602060002090601f016020900481019282610a4c5760008555610a92565b82601f10610a6557805160ff1916838001178555610a92565b82800160010185558215610a92579182015b82811115610a92578251825591602001919060010190610a77565b50610a9e929150610aa2565b5090565b5b80821115610a9e5760008155600101610aa3565b600060208284031215610ac957600080fd5b5035919050565b604080825283519082018190526000906020906060840190828701845b82811015610b125781516001600160a01b031684529284019290840190600101610aed565b5050508381038285015284518082528583019183019060005b81811015610b4757835183529284019291840191600101610b2b565b5090979650505050505050565b6000815180845260005b81811015610b7a57602081850181015186830182015201610b5e565b81811115610b8c576000602083870101525b50601f01601f19169290920160200192915050565b6001600160a01b038816815260e060208201819052600090610bc590830189610b54565b8281036040840152610bd78189610b54565b90508660608401528560808401528460a084015282810360c0840152610bfd8185610b54565b9a9950505050505050505050565b634e487b7160e01b600052604160045260246000fd5b600082601f830112610c3257600080fd5b813567ffffffffffffffff80821115610c4d57610c4d610c0b565b604051601f8301601f19908116603f01168101908282118183101715610c7557610c75610c0b565b81604052838152866020858801011115610c8e57600080fd5b836020870160208301376000602085830101528094505050505092915050565b60008060008060008060c08789031215610cc757600080fd5b86356001600160a01b0381168114610cde57600080fd5b9550602087013567ffffffffffffffff80821115610cfb57600080fd5b610d078a838b01610c21565b96506040890135915080821115610d1d57600080fd5b610d298a838b01610c21565b9550606089013594506080890135935060a0890135915080821115610d4d57600080fd5b50610d5a89828a01610c21565b9150509295509295509295565b600081518084526020808501945080840160005b83811015610da05781516001600160a01b031687529582019590820190600101610d7b565b509495945050505050565b600081518084526020808501945080840160005b83811015610da057815187529582019590820190600101610dbf565b60006020808301818452808551808352604092508286019150828160051b87010184880160005b83811015610eda57888303603f19018552815180516001600160a01b0316845261012088820151818a870152610e3a82870182610b54565b9150508782015185820389870152610e528282610b54565b606084810151908801526080808501519088015260a0808501519088015260c080850151888303828a01529193509150610e8c8382610b54565b9250505060e08083015186830382880152610ea78382610d67565b925050506101008083015192508582038187015250610ec68183610dab565b968901969450505090860190600101610e02565b509098975050505050505050565b600181811c90821680610efc57607f821691505b602082108114156108af57634e487b7160e01b600052602260045260246000fd5b634e487b7160e01b600052601160045260246000fd5b6000600019821415610f4757610f47610f1d565b5060010190565b600082821015610f6057610f60610f1d565b500390565b634e487b7160e01b600052603260045260246000fd5b60008219821115610f8e57610f8e610f1d565b50019056fea26469706673582212208e741a7dbde8181eb016868fbadd90d460afb8e72131070fd78e3da3f2ea063564736f6c63430008090033",
  "linkReferences": {},
  "deployedLinkReferences": {}
}