{
  "_format": "hh-sol-artifact-1",
  "contractName": "CrowdFunding",
  "sourceName": "contracts/CrowdFunding.sol",
  "abi": [
    {
      "inputs": [],
      "stateMutability": "nonpayable",
      "type": "constructor"
    },
    {
      "anonymous": false,
      "inputs": [
        {
          "indexed": false,
          "internalType": "string",
          "name": "prevURI",
          "type": "string"
        },
        {
          "indexed": false,
          "internalType": "string",
          "name": "newURI",
          "type": "string"
        }
      ],
      "name": "ContractURIUpdated",
      "type": "event"
    },
    {
      "inputs": [],
      "name": "campaignCount",
      "outputs": [
        {
          "internalType": "uint256",
          "name": "",
          "type": "uint256"
        }
      ],
      "stateMutability": "view",
      "type": "function"
    },
    {
      "inputs": [
        {
          "internalType": "uint256",
          "name": "",
          "type": "uint256"
        }
      ],
      "name": "campaigns",
      "outputs": [
        {
          "internalType": "address",
          "name": "owner",
          "type": "address"
        },
        {
          "internalType": "string",
          "name": "title",
          "type": "string"
        },
        {
          "internalType": "string",
          "name": "description",
          "type": "string"
        },
        {
          "internalType": "uint256",
          "name": "target",
          "type": "uint256"
        },
        {
          "internalType": "uint256",
          "name": "deadline",
          "type": "uint256"
        },
        {
          "internalType": "uint256",
          "name": "amountCollected",
          "type": "uint256"
        },
        {
          "internalType": "string",
          "name": "image",
          "type": "string"
        }
      ],
      "stateMutability": "view",
      "type": "function"
    },
    {
      "inputs": [],
      "name": "contractURI",
      "outputs": [
        {
          "internalType": "string",
          "name": "",
          "type": "string"
        }
      ],
      "stateMutability": "view",
      "type": "function"
    },
    {
      "inputs": [
        {
          "internalType": "address",
          "name": "_owner",
          "type": "address"
        },
        {
          "internalType": "string",
          "name": "_title",
          "type": "string"
        },
        {
          "internalType": "string",
          "name": "_description",
          "type": "string"
        },
        {
          "internalType": "uint256",
          "name": "_target",
          "type": "uint256"
        },
        {
          "internalType": "uint256",
          "name": "_deadline",
          "type": "uint256"
        },
        {
          "internalType": "string",
          "name": "_image",
          "type": "string"
        }
      ],
      "name": "createCampaign",
      "outputs": [
        {
          "internalType": "uint256",
          "name": "",
          "type": "uint256"
        }
      ],
      "stateMutability": "nonpayable",
      "type": "function"
    },
    {
      "inputs": [],
      "name": "deployer",
      "outputs": [
        {
          "internalType": "address",
          "name": "",
          "type": "address"
        }
      ],
      "stateMutability": "view",
      "type": "function"
    },
    {
      "inputs": [
        {
          "internalType": "uint256",
          "name": "_id",
          "type": "uint256"
        }
      ],
      "name": "donate",
      "outputs": [],
      "stateMutability": "payable",
      "type": "function"
    },
    {
      "inputs": [],
      "name": "getCampaigns",
      "outputs": [
        {
          "components": [
            {
              "internalType": "address",
              "name": "owner",
              "type": "address"
            },
            {
              "internalType": "string",
              "name": "title",
              "type": "string"
            },
            {
              "internalType": "string",
              "name": "description",
              "type": "string"
            },
            {
              "internalType": "uint256",
              "name": "target",
              "type": "uint256"
            },
            {
              "internalType": "uint256",
              "name": "deadline",
              "type": "uint256"
            },
            {
              "internalType": "uint256",
              "name": "amountCollected",
              "type": "uint256"
            },
            {
              "internalType": "string",
              "name": "image",
              "type": "string"
            },
            {
              "internalType": "address[]",
              "name": "donators",
              "type": "address[]"
            },
            {
              "internalType": "uint256[]",
              "name": "donations",
              "type": "uint256[]"
            }
          ],
          "internalType": "struct CrowdFunding.Campaign[]",
          "name": "",
          "type": "tuple[]"
        }
      ],
      "stateMutability": "view",
      "type": "function"
    },
    {
      "inputs": [
        {
          "internalType": "uint256",
          "name": "_id",
          "type": "uint256"
        }
      ],
      "name": "getDonators",
      "outputs": [
        {
          "internalType": "address[]",
          "name": "",
          "type": "address[]"
        },
        {
          "internalType": "uint256[]",
          "name": "",
          "type": "uint256[]"
        }
      ],
      "stateMutability": "view",
      "type": "function"
    },
    {
      "inputs": [
        {
          "internalType": "string",
          "name": "_uri",
          "type": "string"
        }
      ],
      "name": "setContractURI",
      "outputs": [],
      "stateMutability": "nonpayable",
      "type": "function"
    }
  ],
  "bytecode": "0x6080604052600060035534801561001557600080fd5b50600180546001600160a01b031916331790556112c4806100376000396000f3fe6080604052600436106100865760003560e01c80639943e3a1116100595780639943e3a11461013b578063a6b036331461015b578063d5f394881461017d578063e8a3d485146101b5578063f14faf6f146101d757600080fd5b80630fa91fa91461008b578063141961bc146100c25780637274e30d146100f5578063938e3d7b14610119575b600080fd5b34801561009757600080fd5b506100ab6100a6366004610d2d565b6101ea565b6040516100b9929190610d46565b60405180910390f35b3480156100ce57600080fd5b506100e26100dd366004610d2d565b6102bb565b6040516100b99796959493929190610e17565b34801561010157600080fd5b5061010b60035481565b6040519081526020016100b9565b34801561012557600080fd5b50610139610134366004610f24565b610498565b005b34801561014757600080fd5b5061010b610156366004610f61565b6104f4565b34801561016757600080fd5b5061017061060d565b6040516100b9919061108e565b34801561018957600080fd5b5060015461019d906001600160a01b031681565b6040516001600160a01b0390911681526020016100b9565b3480156101c157600080fd5b506101ca6109bc565b6040516100b9919061119b565b6101396101e5366004610d2d565b610a4a565b60008181526002602090815260409182902060078101805484518185028101850190955280855260609485949293600801929091849183018282801561025957602002820191906000526020600020905b81546001600160a01b0316815260019091019060200180831161023b575b50505050509150808054806020026020016040519081016040528092919081815260200182805480156102ab57602002820191906000526020600020905b815481526020019060010190808311610297575b5050505050905091509150915091565b600260205260009081526040902080546001820180546001600160a01b0390921692916102e7906111b5565b80601f0160208091040260200160405190810160405280929190818152602001828054610313906111b5565b80156103605780601f1061033557610100808354040283529160200191610360565b820191906000526020600020905b81548152906001019060200180831161034357829003601f168201915b505050505090806002018054610375906111b5565b80601f01602080910402602001604051908101604052809291908181526020018280546103a1906111b5565b80156103ee5780601f106103c3576101008083540402835291602001916103ee565b820191906000526020600020905b8154815290600101906020018083116103d157829003601f168201915b505050505090806003015490806004015490806005015490806006018054610415906111b5565b80601f0160208091040260200160405190810160405280929190818152602001828054610441906111b5565b801561048e5780601f106104635761010080835404028352916020019161048e565b820191906000526020600020905b81548152906001019060200180831161047157829003601f168201915b5050505050905087565b6001546001600160a01b031633146104e85760405162461bcd60e51b815260206004820152600e60248201526d139bdd08185d5d1a1bdc9a5e995960921b60448201526064015b60405180910390fd5b6104f181610bb3565b50565b60035460009081526002602052604081206004810154421161056d5760405162461bcd60e51b815260206004820152602c60248201527f54686520646561646c696e652073686f756c642062652061206461746520696e60448201526b103a343290333aba3ab9329760a11b60648201526084016104df565b80546001600160a01b0319166001600160a01b038916178155865161059b90600183019060208a0190610c94565b5085516105b19060028301906020890190610c94565b50600381018590556004810184905582516105d59060068301906020860190610c94565b5060006005820181905560038054916105ed83611200565b91905055506001600354610601919061121b565b98975050505050505050565b6060600060035467ffffffffffffffff81111561062c5761062c610e81565b6040519080825280602002602001820160405280156106b557816020015b6106a260405180610120016040528060006001600160a01b0316815260200160608152602001606081526020016000815260200160008152602001600081526020016060815260200160608152602001606081525090565b81526020019060019003908161064a5790505b50905060005b6003548110156109b6576000818152600260209081526040918290208251610120810190935280546001600160a01b0316835260018101805491939284929084019190610707906111b5565b80601f0160208091040260200160405190810160405280929190818152602001828054610733906111b5565b80156107805780601f1061075557610100808354040283529160200191610780565b820191906000526020600020905b81548152906001019060200180831161076357829003601f168201915b50505050508152602001600282018054610799906111b5565b80601f01602080910402602001604051908101604052809291908181526020018280546107c5906111b5565b80156108125780601f106107e757610100808354040283529160200191610812565b820191906000526020600020905b8154815290600101906020018083116107f557829003601f168201915b50505050508152602001600382015481526020016004820154815260200160058201548152602001600682018054610849906111b5565b80601f0160208091040260200160405190810160405280929190818152602001828054610875906111b5565b80156108c25780601f10610897576101008083540402835291602001916108c2565b820191906000526020600020905b8154815290600101906020018083116108a557829003601f168201915b505050505081526020016007820180548060200260200160405190810160405280929190818152602001828054801561092457602002820191906000526020600020905b81546001600160a01b03168152600190910190602001808311610906575b505050505081526020016008820180548060200260200160405190810160405280929190818152602001828054801561097c57602002820191906000526020600020905b815481526020019060010190808311610968575b50505050508152505083838151811061099757610997611232565b60200260200101819052505080806109ae90611200565b9150506106bb565b50919050565b600080546109c9906111b5565b80601f01602080910402602001604051908101604052809291908181526020018280546109f5906111b5565b8015610a425780601f10610a1757610100808354040283529160200191610a42565b820191906000526020600020905b815481529060010190602001808311610a2557829003601f168201915b505050505081565b600081815260026020526040902060048101544210610aab5760405162461bcd60e51b815260206004820152601860248201527f54686520646561646c696e6520686173207061737365642e000000000000000060448201526064016104df565b60003411610afb5760405162461bcd60e51b815260206004820152601c60248201527f596f75206e65656420746f2073656e6420736f6d652045746865722e0000000060448201526064016104df565b600781018054600180820183556000928352602080842090920180546001600160a01b031916331790556008840180549182018155835290822034910181905582546040516001600160a01b0390911691908381818185875af1925050503d8060008114610b85576040519150601f19603f3d011682016040523d82523d6000602084013e610b8a565b606091505b505090508015610bae5734826005016000828254610ba89190611248565b90915550505b505050565b6000808054610bc1906111b5565b80601f0160208091040260200160405190810160405280929190818152602001828054610bed906111b5565b8015610c3a5780601f10610c0f57610100808354040283529160200191610c3a565b820191906000526020600020905b815481529060010190602001808311610c1d57829003601f168201915b50508551939450610c5693600093506020870192509050610c94565b507fc9c7c3fe08b88b4df9d4d47ef47d2c43d55c025a0ba88ca442580ed9e7348a168183604051610c88929190611260565b60405180910390a15050565b828054610ca0906111b5565b90600052602060002090601f016020900481019282610cc25760008555610d08565b82601f10610cdb57805160ff1916838001178555610d08565b82800160010185558215610d08579182015b82811115610d08578251825591602001919060010190610ced565b50610d14929150610d18565b5090565b5b80821115610d145760008155600101610d19565b600060208284031215610d3f57600080fd5b5035919050565b604080825283519082018190526000906020906060840190828701845b82811015610d885781516001600160a01b031684529284019290840190600101610d63565b5050508381038285015284518082528583019183019060005b81811015610dbd57835183529284019291840191600101610da1565b5090979650505050505050565b6000815180845260005b81811015610df057602081850181015186830182015201610dd4565b81811115610e02576000602083870101525b50601f01601f19169290920160200192915050565b6001600160a01b038816815260e060208201819052600090610e3b90830189610dca565b8281036040840152610e4d8189610dca565b90508660608401528560808401528460a084015282810360c0840152610e738185610dca565b9a9950505050505050505050565b634e487b7160e01b600052604160045260246000fd5b600082601f830112610ea857600080fd5b813567ffffffffffffffff80821115610ec357610ec3610e81565b604051601f8301601f19908116603f01168101908282118183101715610eeb57610eeb610e81565b81604052838152866020858801011115610f0457600080fd5b836020870160208301376000602085830101528094505050505092915050565b600060208284031215610f3657600080fd5b813567ffffffffffffffff811115610f4d57600080fd5b610f5984828501610e97565b949350505050565b60008060008060008060c08789031215610f7a57600080fd5b86356001600160a01b0381168114610f9157600080fd5b9550602087013567ffffffffffffffff80821115610fae57600080fd5b610fba8a838b01610e97565b96506040890135915080821115610fd057600080fd5b610fdc8a838b01610e97565b9550606089013594506080890135935060a089013591508082111561100057600080fd5b5061100d89828a01610e97565b9150509295509295509295565b600081518084526020808501945080840160005b838110156110535781516001600160a01b03168752958201959082019060010161102e565b509495945050505050565b600081518084526020808501945080840160005b8381101561105357815187529582019590820190600101611072565b60006020808301818452808551808352604092508286019150828160051b87010184880160005b8381101561118d57888303603f19018552815180516001600160a01b0316845261012088820151818a8701526110ed82870182610dca565b91505087820151858203898701526111058282610dca565b606084810151908801526080808501519088015260a0808501519088015260c080850151888303828a0152919350915061113f8382610dca565b9250505060e0808301518683038288015261115a838261101a565b925050506101008083015192508582038187015250611179818361105e565b9689019694505050908601906001016110b5565b509098975050505050505050565b6020815260006111ae6020830184610dca565b9392505050565b600181811c908216806111c957607f821691505b602082108114156109b657634e487b7160e01b600052602260045260246000fd5b634e487b7160e01b600052601160045260246000fd5b6000600019821415611214576112146111ea565b5060010190565b60008282101561122d5761122d6111ea565b500390565b634e487b7160e01b600052603260045260246000fd5b6000821982111561125b5761125b6111ea565b500190565b6040815260006112736040830185610dca565b82810360208401526112858185610dca565b9594505050505056fea26469706673582212208f1bb87e667b68eac5439bfb729c465a0dec25d121b273197b5852a853d9d80864736f6c63430008090033",
  "linkReferences": {},
  "deployedLinkReferences": {}
}